{"abi":[{"type":"constructor","inputs":[{"name":"_owner","type":"address","internalType":"address"},{"name":"_perezoso","type":"address","internalType":"address"}],"stateMutability":"nonpayable"},{"type":"function","name":"DURATION","inputs":[],"outputs":[{"name":"","type":"uint256","internalType":"uint256"}],"stateMutability":"view"},{"type":"function","name":"MAX_WITHDRAWAL_AMOUNT","inputs":[],"outputs":[{"name":"","type":"uint256","internalType":"uint256"}],"stateMutability":"view"},{"type":"function","name":"balanceOf","inputs":[{"name":"account","type":"address","internalType":"address"}],"outputs":[{"name":"","type":"uint256","internalType":"uint256"}],"stateMutability":"view"},{"type":"function","name":"deployer","inputs":[],"outputs":[{"name":"","type":"address","internalType":"address"}],"stateMutability":"view"},{"type":"function","name":"earned","inputs":[{"name":"account","type":"address","internalType":"address"}],"outputs":[{"name":"","type":"uint256","internalType":"uint256"}],"stateMutability":"view"},{"type":"function","name":"earnedOnStake","inputs":[{"name":"account","type":"address","internalType":"address"},{"name":"index","type":"uint256","internalType":"uint256"}],"outputs":[{"name":"","type":"uint256","internalType":"uint256"}],"stateMutability":"view"},{"type":"function","name":"getAllStakes","inputs":[{"name":"user","type":"address","internalType":"address"}],"outputs":[{"name":"","type":"tuple[]","internalType":"struct StakingRewards.Stake[]","components":[{"name":"amount","type":"uint256","internalType":"uint256"},{"name":"lockPeriod","type":"uint256","internalType":"uint256"},{"name":"multiplier","type":"uint256","internalType":"uint256"},{"name":"lockEnd","type":"uint256","internalType":"uint256"}]}],"stateMutability":"view"},{"type":"function","name":"getReward","inputs":[],"outputs":[],"stateMutability":"nonpayable"},{"type":"function","name":"lastTimeRewardApplicable","inputs":[],"outputs":[{"name":"","type":"uint256","internalType":"uint256"}],"stateMutability":"view"},{"type":"function","name":"lastUpdateTime","inputs":[],"outputs":[{"name":"","type":"uint256","internalType":"uint256"}],"stateMutability":"view"},{"type":"function","name":"lastWithdrawalTime","inputs":[{"name":"","type":"address","internalType":"address"}],"outputs":[{"name":"","type":"uint256","internalType":"uint256"}],"stateMutability":"view"},{"type":"function","name":"lockMultipliers","inputs":[{"name":"","type":"uint256","internalType":"uint256"}],"outputs":[{"name":"","type":"uint256","internalType":"uint256"}],"stateMutability":"view"},{"type":"function","name":"lockPeriods","inputs":[{"name":"","type":"uint256","internalType":"uint256"}],"outputs":[{"name":"","type":"uint256","internalType":"uint256"}],"stateMutability":"view"},{"type":"function","name":"notifyRewardAmount","inputs":[{"name":"_amount","type":"uint256","internalType":"uint256"}],"outputs":[],"stateMutability":"nonpayable"},{"type":"function","name":"owner","inputs":[],"outputs":[{"name":"","type":"address","internalType":"address"}],"stateMutability":"view"},{"type":"function","name":"perezoso","inputs":[],"outputs":[{"name":"","type":"address","internalType":"contract IERC20"}],"stateMutability":"view"},{"type":"function","name":"perezosoToken","inputs":[],"outputs":[{"name":"","type":"address","internalType":"contract IERC20"}],"stateMutability":"view"},{"type":"function","name":"periodFinish","inputs":[],"outputs":[{"name":"","type":"uint256","internalType":"uint256"}],"stateMutability":"view"},{"type":"function","name":"recoverERC20","inputs":[{"name":"tokenAddress","type":"address","internalType":"address"},{"name":"tokenAmount","type":"uint256","internalType":"uint256"}],"outputs":[],"stateMutability":"nonpayable"},{"type":"function","name":"recoverPerezosoToken","inputs":[],"outputs":[],"stateMutability":"nonpayable"},{"type":"function","name":"renounceOwnership","inputs":[],"outputs":[],"stateMutability":"nonpayable"},{"type":"function","name":"rewardPerToken","inputs":[],"outputs":[{"name":"","type":"uint256","internalType":"uint256"}],"stateMutability":"view"},{"type":"function","name":"rewardPerTokenStored","inputs":[],"outputs":[{"name":"","type":"uint256","internalType":"uint256"}],"stateMutability":"view"},{"type":"function","name":"rewardRate","inputs":[],"outputs":[{"name":"","type":"uint256","internalType":"uint256"}],"stateMutability":"view"},{"type":"function","name":"rewards","inputs":[{"name":"","type":"address","internalType":"address"}],"outputs":[{"name":"","type":"uint256","internalType":"uint256"}],"stateMutability":"view"},{"type":"function","name":"rewardsDistribution","inputs":[],"outputs":[{"name":"","type":"address","internalType":"address"}],"stateMutability":"view"},{"type":"function","name":"setDuration","inputs":[{"name":"_duration","type":"uint256","internalType":"uint256"}],"outputs":[],"stateMutability":"nonpayable"},{"type":"function","name":"setMaxWithdrawalAmount","inputs":[{"name":"amount","type":"uint256","internalType":"uint256"}],"outputs":[],"stateMutability":"nonpayable"},{"type":"function","name":"setRewardsDistribution","inputs":[{"name":"_rewardsDistribution","type":"address","internalType":"address"}],"outputs":[],"stateMutability":"nonpayable"},{"type":"function","name":"stake","inputs":[{"name":"amount","type":"uint256","internalType":"uint256"},{"name":"lockPeriod","type":"uint256","internalType":"uint256"}],"outputs":[],"stateMutability":"nonpayable"},{"type":"function","name":"stake","inputs":[{"name":"amount","type":"uint256","internalType":"uint256"}],"outputs":[],"stateMutability":"nonpayable"},{"type":"function","name":"stakes","inputs":[{"name":"","type":"address","internalType":"address"},{"name":"","type":"uint256","internalType":"uint256"}],"outputs":[{"name":"amount","type":"uint256","internalType":"uint256"},{"name":"lockPeriod","type":"uint256","internalType":"uint256"},{"name":"multiplier","type":"uint256","internalType":"uint256"},{"name":"lockEnd","type":"uint256","internalType":"uint256"}],"stateMutability":"view"},{"type":"function","name":"stakesCount","inputs":[{"name":"user","type":"address","internalType":"address"}],"outputs":[{"name":"","type":"uint256","internalType":"uint256"}],"stateMutability":"view"},{"type":"function","name":"totalSupply","inputs":[],"outputs":[{"name":"","type":"uint256","internalType":"uint256"}],"stateMutability":"view"},{"type":"function","name":"transferOwnership","inputs":[{"name":"newOwner","type":"address","internalType":"address"}],"outputs":[],"stateMutability":"nonpayable"},{"type":"function","name":"userRewardPerTokenPaid","inputs":[{"name":"","type":"address","internalType":"address"}],"outputs":[{"name":"","type":"uint256","internalType":"uint256"}],"stateMutability":"view"},{"type":"function","name":"withdraw","inputs":[{"name":"stakeIndex","type":"uint256","internalType":"uint256"}],"outputs":[],"stateMutability":"nonpayable"},{"type":"event","name":"OwnershipTransferred","inputs":[{"name":"previousOwner","type":"address","indexed":true,"internalType":"address"},{"name":"newOwner","type":"address","indexed":true,"internalType":"address"}],"anonymous":false},{"type":"event","name":"RewardAdded","inputs":[{"name":"reward","type":"uint256","indexed":false,"internalType":"uint256"}],"anonymous":false},{"type":"event","name":"RewardPaid","inputs":[{"name":"user","type":"address","indexed":true,"internalType":"address"},{"name":"reward","type":"uint256","indexed":false,"internalType":"uint256"}],"anonymous":false},{"type":"event","name":"Staked","inputs":[{"name":"user","type":"address","indexed":true,"internalType":"address"},{"name":"amount","type":"uint256","indexed":false,"internalType":"uint256"},{"name":"lockPeriod","type":"uint256","indexed":false,"internalType":"uint256"}],"anonymous":false},{"type":"event","name":"TokensRecovered","inputs":[{"name":"token","type":"address","indexed":false,"internalType":"address"},{"name":"amount","type":"uint256","indexed":false,"internalType":"uint256"}],"anonymous":false},{"type":"event","name":"Withdrawn","inputs":[{"name":"user","type":"address","indexed":true,"internalType":"address"},{"name":"amount","type":"uint256","indexed":false,"internalType":"uint256"}],"anonymous":false},{"type":"error","name":"AddressEmptyCode","inputs":[{"name":"target","type":"address","internalType":"address"}]},{"type":"error","name":"AddressInsufficientBalance","inputs":[{"name":"account","type":"address","internalType":"address"}]},{"type":"error","name":"FailedInnerCall","inputs":[]},{"type":"error","name":"OwnableInvalidOwner","inputs":[{"name":"owner","type":"address","internalType":"address"}]},{"type":"error","name":"OwnableUnauthorizedAccount","inputs":[{"name":"account","type":"address","internalType":"address"}]},{"type":"error","name":"ReentrancyGuardReentrantCall","inputs":[]},{"type":"error","name":"SafeERC20FailedOperation","inputs":[{"name":"token","type":"address","internalType":"address"}]}],"bytecode":{"object":"0x6080604052600080546001600160a01b0319167353ff62409b219ccaff01042bb2743211bb99882e17815562093a806007556b409f9cbc7c4a04c2200000006008556009819055600a553480156200005657600080fd5b5060405162001dd438038062001dd483398101604081905262000079916200030f565b816001600160a01b038116620000aa57604051631e4fbdf760e01b8152600060048201526024015b60405180910390fd5b620000b5816200022b565b506001600555600680546001600160a01b0319166001600160a01b038316179055620000e1826200027d565b5050601580546001600160a01b0319163317905560017ff334b6e428d10075a86b988091978cd863ece9ba03a71184bdbfb81cad5c746c81905560027fd2d295ba115b3f8d1b6f781a2c75c15b381279b9d9208b66f75db1cf1753dde981905560037f16a0eaeacf1026055e7ed13c2129d2ab9348e98e971d2e42711ac3850c725c0981905560067f4327fba6f7c522f39c4a2d2b2677265917f8f6da3734897a0f697531aca0f68b81905560116020527f17bc176d2408558f6e4111feebc3cab4e16b63e967be91cde721f4c8a488b552939093557f08037d7b151cc412d25674a4e66b334d9ae9d2e5517a7feaae5cdb828bf1c628919091557f9bfbaa59f8e10e7868f8b402de9d605a390c45ddaebd8c9de3c6f31e733c87ff5560008190527ffb9ce45064c7e7d9bf9deb4750ba7c94ab3d6e7418c5d76bf69966d39a9d42f65562000347565b600380546001600160a01b038381166001600160a01b0319831681179093556040519116919082907f8be0079c531659141344cd1fd0a4f28419497f9722a3daafe3b4186f6b6457e090600090a35050565b62000287620002c1565b6001600160a01b038116620002b357604051631e4fbdf760e01b815260006004820152602401620000a1565b620002be816200022b565b50565b6003546001600160a01b03163314620002f05760405163118cdaa760e01b8152336004820152602401620000a1565b565b80516001600160a01b03811681146200030a57600080fd5b919050565b600080604083850312156200032357600080fd5b6200032e83620002f2565b91506200033e60208401620002f2565b90509250929050565b611a7d80620003576000396000f3fe608060405234801561001057600080fd5b50600436106102265760003560e01c80635c319d0f11610130578063a694fc3a116100b8578063df136d651161007c578063df136d65146104e6578063ebe2b12b146104ef578063edd0e0cb146104f8578063f2fde38b1461050b578063f6be71d11461051e57600080fd5b8063a694fc3a1461048f578063c8f33c91146104a2578063cd3daf9d146104ab578063d5f39488146104b3578063dd6b21be146104c657600080fd5b80637b0a47ee116100ff5780637b0a47ee1461043a57806380faa57d146104435780638980f11f1461044b5780638b8763471461045e5780638da5cb5b1461047e57600080fd5b80635c319d0f146103ee57806370a08231146103f6578063715018a61461041f5780637b0472f01461042757600080fd5b806325303a73116101b35780633fc6df6e116101825780633fc6df6e1461035557806347cbeb17146103685780634c8f2a781461037b5780634de5120e1461039b578063584b62a1146103bb57600080fd5b806325303a73146103145780632e1a7d4d146103275780633c6b16ab1461033a5780633d18b9121461034d57600080fd5b80630e36e355116101fa5780630e36e3551461029a57806318160ddd146102c357806319762143146102cb5780631ba81812146102e05780631be052891461030b57600080fd5b80628cc2621461022b5780630423899414610251578063058c8c2e146102715780630700037d1461027a575b600080fd5b61023e6102393660046117ff565b610531565b6040519081526020015b60405180910390f35b61026461025f3660046117ff565b61059f565b604051610248919061181a565b61023e60085481565b61023e6102883660046117ff565b600e6020526000908152604090205481565b61023e6102a83660046117ff565b6001600160a01b03166000908152600f602052604090205490565b60125461023e565b6102de6102d93660046117ff565b61063c565b005b6000546102f3906001600160a01b031681565b6040516001600160a01b039091168152602001610248565b61023e60075481565b6102de61032236600461187e565b610666565b6102de61033536600461187e565b6106b3565b6102de61034836600461187e565b610999565b6102de610b20565b6004546102f3906001600160a01b031681565b61023e610376366004611897565b610d03565b61023e61038936600461187e565b60106020526000908152604090205481565b61023e6103a93660046117ff565b60146020526000908152604090205481565b6103ce6103c9366004611897565b610e35565b604080519485526020850193909352918301526060820152608001610248565b6102de610e7b565b61023e6104043660046117ff565b6001600160a01b031660009081526013602052604090205490565b6102de610f9a565b6102de6104353660046118c1565b610fae565b61023e600a5481565b61023e6111ba565b6102de610459366004611897565b6111cd565b61023e61046c3660046117ff565b600d6020526000908152604090205481565b6003546001600160a01b03166102f3565b6102de61049d36600461187e565b611271565b61023e600b5481565b61023e6112cc565b6015546102f3906001600160a01b031681565b61023e6104d436600461187e565b60116020526000908152604090205481565b61023e600c5481565b61023e60095481565b6006546102f3906001600160a01b031681565b6102de6105193660046117ff565b611329565b6102de61052c36600461187e565b611364565b600080805b6001600160a01b0384166000908152600f6020526040902054811015610574576105608482610d03565b61056a90836118f9565b9150600101610536565b506001600160a01b0383166000908152600e602052604090205461059890826118f9565b9392505050565b6001600160a01b0381166000908152600f60209081526040808320805482518185028101850190935280835260609492939192909184015b828210156106315783829060005260206000209060040201604051806080016040529081600082015481526020016001820154815260200160028201548152602001600382015481525050815260200190600101906105d7565b505050509050919050565b61064461146e565b600480546001600160a01b0319166001600160a01b0392909216919091179055565b6003546001600160a01b031633148061068957506015546001600160a01b031633145b6106ae5760405162461bcd60e51b81526004016106a59061190c565b60405180910390fd5b600855565b336106bc6112cc565b600c556106c76111ba565b600b556001600160a01b0381161561070e576106e281610531565b6001600160a01b0382166000908152600e6020908152604080832093909355600c54600d909152919020555b336000908152600f602052604090205482106107625760405162461bcd60e51b8152602060048201526013602482015272092dcecc2d8d2c840e6e8c2d6ca40d2dcc8caf606b1b60448201526064016106a5565b336000908152600f602052604081208054849081106107835761078361194f565b9060005260206000209060040201905060008160000154116107de5760405162461bcd60e51b81526020600482015260146024820152734e6f207374616b6520746f20776974686472617760601b60448201526064016106a5565b80600301544210156108245760405162461bcd60e51b815260206004820152600f60248201526e14dd185ad9481a5cc81b1bd8dad959608a1b60448201526064016106a5565b805460128054600090610838908490611965565b90915550508054336000908152601360205260408120805490919061085e908490611965565b9091555050805461086e9061149b565b805460405190815233907f7084f5476618d8e60b11ef0d7d3f06914655adb8793e28ff7f018d4c76d505d59060200160405180910390a2336000908152600f6020526040902080546108c290600190611965565b815481106108d2576108d261194f565b9060005260206000209060040201600f6000336001600160a01b03166001600160a01b0316815260200190815260200160002084815481106109165761091661194f565b60009182526020808320845460049093020191825560018085015490830155600280850154908301556003938401549390910192909255338152600f9091526040902080548061096857610968611978565b6000828152602081206004600019909301928302018181556001810182905560028101829055600301559055505050565b60006109a36112cc565b600c556109ae6111ba565b600b556001600160a01b038116156109f5576109c981610531565b6001600160a01b0382166000908152600e6020908152604080832093909355600c54600d909152919020555b6009544210610a1457600754610a0c9083906114f2565b600a55610aba565b600954600090610a2490426114fe565b90506000610a3d600a548361151a90919063ffffffff16565b90506000610a60600754610a5a848861155090919063ffffffff16565b906114f2565b9050600a54811015610ab45760405162461bcd60e51b815260206004820152601760248201527f4e657720726577617264207261746520746f6f206c6f7700000000000000000060448201526064016106a5565b600a5550505b42600b819055600754610acd9190611550565b600955600654610ae8906001600160a01b031633308561156e565b6040518281527fde88a922e0d3b88b24e9623efeb464919c6bf9f66857a65e2bfcf2ce87a9433d906020015b60405180910390a15050565b33610b296112cc565b600c55610b346111ba565b600b556001600160a01b03811615610b7b57610b4f81610531565b6001600160a01b0382166000908152600e6020908152604080832093909355600c54600d909152919020555b6000610b8633610531565b905060008111610bce5760405162461bcd60e51b81526020600482015260136024820152724e6f207265776172647320746f20636c61696d60681b60448201526064016106a5565b33600090815260146020526040812054429190610bee90620151806118f9565b336000908152601460205260409020549091501580610c0c57508082115b610c675760405162461bcd60e51b815260206004820152602660248201527f5769746864726177616c2063616e206f6e6c7920626520646f6e65206f6e636560448201526520612064617960d01b60648201526084016106a5565b6008548390811115610c7857506008545b336000908152600e602052604081208054839290610c97908490611965565b9091555050336000818152601460205260409020849055600654610cc7916001600160a01b0390911690836115db565b60405181815233907fe2403640ba68fed3a2f88b7557551d1993f84b99bb10ff833f0cf8db0c5e04869060200160405180910390a25050505050565b6001600160a01b0382166000908152600f60205260408120548210610d6a5760405162461bcd60e51b815260206004820152601960248201527f5374616b6520696e646578206f7574206f6620626f756e64730000000000000060448201526064016106a5565b6001600160a01b0383166000908152600f60205260408120805484908110610d9457610d9461194f565b60009182526020808320604080516080810182526004909402909101805484526001810154848401526002810154848301526003015460608401526001600160a01b0388168452600d909152822054909250670de0b6b3a764000090610df86112cc565b610e029190611965565b8351610e0e919061198e565b610e1891906119a5565b9050816040015181610e2a919061198e565b925050505b92915050565b600f6020528160005260406000208181548110610e5157600080fd5b60009182526020909120600490910201805460018201546002830154600390930154919450925084565b6003546001600160a01b0316331480610e9e57506015546001600160a01b031633145b610eba5760405162461bcd60e51b81526004016106a59061190c565b6006546040516370a0823160e01b81523060048201526000916001600160a01b0316906370a0823190602401602060405180830381865afa158015610f03573d6000803e3d6000fd5b505050506040513d601f19601f82011682018060405250810190610f2791906119c7565b9050610f51610f3e6003546001600160a01b031690565b6006546001600160a01b031690836115db565b600654604080516001600160a01b039092168252602082018390527f46d2e6e71fc567877b817ff3d940571f989d4ee4d40f2b70806d36e738feef6f910160405180910390a150565b610fa261146e565b610fac6000611611565b565b33610fb76112cc565b600c55610fc26111ba565b600b556001600160a01b0381161561100957610fdd81610531565b6001600160a01b0382166000908152600e6020908152604080832093909355600c54600d909152919020555b6000831161104a5760405162461bcd60e51b815260206004820152600e60248201526d043616e6e6f74207374616b6520360941b60448201526064016106a5565b60008281526010602052604090205461109b5760405162461bcd60e51b8152602060048201526013602482015272125b9d985b1a59081b1bd8dac81c195c9a5bd9606a1b60448201526064016106a5565b60008281526010602090815260408083205483526011825280832054338452600f835292819020815160808101835287815292830186905290820183905290606081016110e886426118f9565b90528154600181810184556000938452602080852084516004909402019283558301519082015560408201516002820155606090910151600390910155601280548692906111379084906118f9565b9091555050336000908152601360205260408120805486929061115b9084906118f9565b90915550503360009081526014602052604081205561117984611271565b604080518581526020810185905233917f1449c6dd7851abc30abf37f57715f492010519147cc2652fbc38202c18a6ee90910160405180910390a250505050565b60006111c842600954611663565b905090565b6003546001600160a01b03163314806111f057506015546001600160a01b031633145b61120c5760405162461bcd60e51b81526004016106a59061190c565b6112326112216003546001600160a01b031690565b6001600160a01b03841690836115db565b604080516001600160a01b0384168152602081018390527f46d2e6e71fc567877b817ff3d940571f989d4ee4d40f2b70806d36e738feef6f9101610b14565b8060015461127f91906118f9565b6001553360009081526002602052604090205461129d9082906118f9565b3360008181526002602052604081209290925590546112c9916001600160a01b0390911690308461156e565b50565b60006112d760125490565b6000036112e55750600c5490565b6111c86113206112f460125490565b610a5a670de0b6b3a764000061131a600a5461131a600b546113146111ba565b906114fe565b9061151a565b600c5490611550565b61133161146e565b6001600160a01b03811661135b57604051631e4fbdf760e01b8152600060048201526024016106a5565b6112c981611611565b6003546001600160a01b031633148061138757506015546001600160a01b031633145b6113a35760405162461bcd60e51b81526004016106a59061190c565b600954156114195760405162461bcd60e51b815260206004820152603d60248201527f43616e6e6f74206368616e6765206475726174696f6e2061667465722072657760448201527f6172647320646973747269627574696f6e20686173207374617274656400000060648201526084016106a5565b600081116114695760405162461bcd60e51b815260206004820152601f60248201527f4475726174696f6e206d7573742062652067726561746572207468616e20300060448201526064016106a5565b600755565b6003546001600160a01b03163314610fac5760405163118cdaa760e01b81523360048201526024016106a5565b806001546114a99190611965565b600155336000908152600260205260409020546114c7908290611965565b3360008181526002602052604081209290925590546112c9916001600160a01b0390911690836115db565b600061059882846119a5565b600082821115611510576115106119e0565b6105988284611965565b60008260000361152c57506000610e2f565b611536828461198e565b90508161154384836119a5565b14610e2f57610e2f6119e0565b600061155c82846118f9565b905082811015610e2f57610e2f6119e0565b6040516001600160a01b0384811660248301528381166044830152606482018390526115d59186918216906323b872dd906084015b604051602081830303815290604052915060e01b6020820180516001600160e01b038381831617835250505050611679565b50505050565b6040516001600160a01b0383811660248301526044820183905261160c91859182169063a9059cbb906064016115a3565b505050565b600380546001600160a01b038381166001600160a01b0319831681179093556040519116919082907f8be0079c531659141344cd1fd0a4f28419497f9722a3daafe3b4186f6b6457e090600090a35050565b60008183106116725781610598565b5090919050565b600061168e6001600160a01b038416836116dc565b905080516000141580156116b35750808060200190518101906116b191906119f6565b155b1561160c57604051635274afe760e01b81526001600160a01b03841660048201526024016106a5565b60606105988383600084600080856001600160a01b031684866040516117029190611a18565b60006040518083038185875af1925050503d806000811461173f576040519150601f19603f3d011682016040523d82523d6000602084013e611744565b606091505b509150915061175486838361175e565b9695505050505050565b6060826117735761176e826117ba565b610598565b815115801561178a57506001600160a01b0384163b155b156117b357604051639996b31560e01b81526001600160a01b03851660048201526024016106a5565b5080610598565b8051156117ca5780518082602001fd5b604051630a12f52160e11b815260040160405180910390fd5b80356001600160a01b03811681146117fa57600080fd5b919050565b60006020828403121561181157600080fd5b610598826117e3565b602080825282518282018190526000919060409081850190868401855b8281101561187157815180518552868101518786015285810151868601526060908101519085015260809093019290850190600101611837565b5091979650505050505050565b60006020828403121561189057600080fd5b5035919050565b600080604083850312156118aa57600080fd5b6118b3836117e3565b946020939093013593505050565b600080604083850312156118d457600080fd5b50508035926020909101359150565b634e487b7160e01b600052601160045260246000fd5b80820180821115610e2f57610e2f6118e3565b60208082526023908201527f43616c6c6572206973206e6f7420746865206f776e6572206f72206465706c6f6040820152623cb2b960e91b606082015260800190565b634e487b7160e01b600052603260045260246000fd5b81810381811115610e2f57610e2f6118e3565b634e487b7160e01b600052603160045260246000fd5b8082028115828204841417610e2f57610e2f6118e3565b6000826119c257634e487b7160e01b600052601260045260246000fd5b500490565b6000602082840312156119d957600080fd5b5051919050565b634e487b7160e01b600052600160045260246000fd5b600060208284031215611a0857600080fd5b8151801515811461059857600080fd5b6000825160005b81811015611a395760208186018101518583015201611a1f565b50600092019182525091905056fea2646970667358221220206ff4b789d86edeae31b0f079d4e00390adf8cb1912f960f1539d8f1dc4287f64736f6c63430008170033","linkReferences":{}},"methodIdentifiers":{"DURATION()":"1be05289","MAX_WITHDRAWAL_AMOUNT()":"058c8c2e","balanceOf(address)":"70a08231","deployer()":"d5f39488","earned(address)":"008cc262","earnedOnStake(address,uint256)":"47cbeb17","getAllStakes(address)":"04238994","getReward()":"3d18b912","lastTimeRewardApplicable()":"80faa57d","lastUpdateTime()":"c8f33c91","lastWithdrawalTime(address)":"4de5120e","lockMultipliers(uint256)":"dd6b21be","lockPeriods(uint256)":"4c8f2a78","notifyRewardAmount(uint256)":"3c6b16ab","owner()":"8da5cb5b","perezoso()":"edd0e0cb","perezosoToken()":"1ba81812","periodFinish()":"ebe2b12b","recoverERC20(address,uint256)":"8980f11f","recoverPerezosoToken()":"5c319d0f","renounceOwnership()":"715018a6","rewardPerToken()":"cd3daf9d","rewardPerTokenStored()":"df136d65","rewardRate()":"7b0a47ee","rewards(address)":"0700037d","rewardsDistribution()":"3fc6df6e","setDuration(uint256)":"f6be71d1","setMaxWithdrawalAmount(uint256)":"25303a73","setRewardsDistribution(address)":"19762143","stake(uint256)":"a694fc3a","stake(uint256,uint256)":"7b0472f0","stakes(address,uint256)":"584b62a1","stakesCount(address)":"0e36e355","totalSupply()":"18160ddd","transferOwnership(address)":"f2fde38b","userRewardPerTokenPaid(address)":"8b876347","withdraw(uint256)":"2e1a7d4d"},"id":37}