{"abi":[{"type":"constructor","inputs":[{"name":"_owner","type":"address","internalType":"address"},{"name":"_perezoso","type":"address","internalType":"address"}],"stateMutability":"nonpayable"},{"type":"function","name":"DURATION","inputs":[],"outputs":[{"name":"","type":"uint256","internalType":"uint256"}],"stateMutability":"view"},{"type":"function","name":"MAX_WITHDRAWAL_AMOUNT","inputs":[],"outputs":[{"name":"","type":"uint256","internalType":"uint256"}],"stateMutability":"view"},{"type":"function","name":"balanceOf","inputs":[{"name":"account","type":"address","internalType":"address"}],"outputs":[{"name":"","type":"uint256","internalType":"uint256"}],"stateMutability":"view"},{"type":"function","name":"deployer","inputs":[],"outputs":[{"name":"","type":"address","internalType":"address"}],"stateMutability":"view"},{"type":"function","name":"earned","inputs":[{"name":"account","type":"address","internalType":"address"}],"outputs":[{"name":"","type":"uint256","internalType":"uint256"}],"stateMutability":"view"},{"type":"function","name":"earnedOnStake","inputs":[{"name":"account","type":"address","internalType":"address"},{"name":"index","type":"uint256","internalType":"uint256"}],"outputs":[{"name":"","type":"uint256","internalType":"uint256"}],"stateMutability":"view"},{"type":"function","name":"getAllStakes","inputs":[{"name":"user","type":"address","internalType":"address"}],"outputs":[{"name":"","type":"tuple[]","internalType":"struct StakingRewardsV3.Stake[]","components":[{"name":"amount","type":"uint256","internalType":"uint256"},{"name":"lockPeriod","type":"uint256","internalType":"uint256"},{"name":"multiplier","type":"uint256","internalType":"uint256"},{"name":"lockEnd","type":"uint256","internalType":"uint256"},{"name":"totalEarned","type":"uint256","internalType":"uint256"}]}],"stateMutability":"view"},{"type":"function","name":"getReward","inputs":[],"outputs":[],"stateMutability":"nonpayable"},{"type":"function","name":"importStakes","inputs":[{"name":"stakerAddresses","type":"address[]","internalType":"address[]"},{"name":"stakeAmounts","type":"uint256[][]","internalType":"uint256[][]"},{"name":"lockPeriodsArrays","type":"uint256[][]","internalType":"uint256[][]"},{"name":"totalEarnedPerStakeArrays","type":"uint256[][]","internalType":"uint256[][]"},{"name":"totalRewardPaidPerStaker","type":"uint256[]","internalType":"uint256[]"}],"outputs":[],"stateMutability":"nonpayable"},{"type":"function","name":"importedStakes","inputs":[],"outputs":[{"name":"","type":"bool","internalType":"bool"}],"stateMutability":"view"},{"type":"function","name":"isStaker","inputs":[{"name":"","type":"address","internalType":"address"}],"outputs":[{"name":"","type":"bool","internalType":"bool"}],"stateMutability":"view"},{"type":"function","name":"lastTimeRewardApplicable","inputs":[],"outputs":[{"name":"","type":"uint256","internalType":"uint256"}],"stateMutability":"view"},{"type":"function","name":"lastUpdateTime","inputs":[],"outputs":[{"name":"","type":"uint256","internalType":"uint256"}],"stateMutability":"view"},{"type":"function","name":"lastWithdrawalTime","inputs":[{"name":"","type":"address","internalType":"address"}],"outputs":[{"name":"","type":"uint256","internalType":"uint256"}],"stateMutability":"view"},{"type":"function","name":"lockMultipliers","inputs":[{"name":"","type":"uint256","internalType":"uint256"}],"outputs":[{"name":"","type":"uint256","internalType":"uint256"}],"stateMutability":"view"},{"type":"function","name":"lockPeriods","inputs":[{"name":"","type":"uint256","internalType":"uint256"}],"outputs":[{"name":"","type":"uint256","internalType":"uint256"}],"stateMutability":"view"},{"type":"function","name":"notifyRewardAmount","inputs":[{"name":"_amount","type":"uint256","internalType":"uint256"}],"outputs":[],"stateMutability":"nonpayable"},{"type":"function","name":"owner","inputs":[],"outputs":[{"name":"","type":"address","internalType":"address"}],"stateMutability":"view"},{"type":"function","name":"perezoso","inputs":[],"outputs":[{"name":"","type":"address","internalType":"contract IERC20"}],"stateMutability":"view"},{"type":"function","name":"perezosoToken","inputs":[],"outputs":[{"name":"","type":"address","internalType":"contract IERC20"}],"stateMutability":"view"},{"type":"function","name":"periodFinish","inputs":[],"outputs":[{"name":"","type":"uint256","internalType":"uint256"}],"stateMutability":"view"},{"type":"function","name":"recoverERC20","inputs":[{"name":"tokenAddress","type":"address","internalType":"address"},{"name":"tokenAmount","type":"uint256","internalType":"uint256"}],"outputs":[],"stateMutability":"nonpayable"},{"type":"function","name":"recoverPerezosoToken","inputs":[],"outputs":[],"stateMutability":"nonpayable"},{"type":"function","name":"renounceOwnership","inputs":[],"outputs":[],"stateMutability":"nonpayable"},{"type":"function","name":"rewardPaid","inputs":[{"name":"","type":"address","internalType":"address"}],"outputs":[{"name":"","type":"uint256","internalType":"uint256"}],"stateMutability":"view"},{"type":"function","name":"rewardPerToken","inputs":[],"outputs":[{"name":"","type":"uint256","internalType":"uint256"}],"stateMutability":"view"},{"type":"function","name":"rewardPerTokenStored","inputs":[],"outputs":[{"name":"","type":"uint256","internalType":"uint256"}],"stateMutability":"view"},{"type":"function","name":"rewardRate","inputs":[],"outputs":[{"name":"","type":"uint256","internalType":"uint256"}],"stateMutability":"view"},{"type":"function","name":"rewards","inputs":[{"name":"","type":"address","internalType":"address"}],"outputs":[{"name":"","type":"uint256","internalType":"uint256"}],"stateMutability":"view"},{"type":"function","name":"rewardsDistribution","inputs":[],"outputs":[{"name":"","type":"address","internalType":"address"}],"stateMutability":"view"},{"type":"function","name":"setDuration","inputs":[{"name":"_duration","type":"uint256","internalType":"uint256"}],"outputs":[],"stateMutability":"nonpayable"},{"type":"function","name":"setMaxWithdrawalAmount","inputs":[{"name":"amount","type":"uint256","internalType":"uint256"}],"outputs":[],"stateMutability":"nonpayable"},{"type":"function","name":"setRewardsDistribution","inputs":[{"name":"_rewardsDistribution","type":"address","internalType":"address"}],"outputs":[],"stateMutability":"nonpayable"},{"type":"function","name":"stake","inputs":[{"name":"amount","type":"uint256","internalType":"uint256"},{"name":"lockPeriod","type":"uint256","internalType":"uint256"}],"outputs":[],"stateMutability":"nonpayable"},{"type":"function","name":"stake","inputs":[{"name":"amount","type":"uint256","internalType":"uint256"}],"outputs":[],"stateMutability":"nonpayable"},{"type":"function","name":"stakers","inputs":[{"name":"","type":"uint256","internalType":"uint256"}],"outputs":[{"name":"","type":"address","internalType":"address"}],"stateMutability":"view"},{"type":"function","name":"stakes","inputs":[{"name":"","type":"address","internalType":"address"},{"name":"","type":"uint256","internalType":"uint256"}],"outputs":[{"name":"amount","type":"uint256","internalType":"uint256"},{"name":"lockPeriod","type":"uint256","internalType":"uint256"},{"name":"multiplier","type":"uint256","internalType":"uint256"},{"name":"lockEnd","type":"uint256","internalType":"uint256"},{"name":"totalEarned","type":"uint256","internalType":"uint256"}],"stateMutability":"view"},{"type":"function","name":"stakesCount","inputs":[{"name":"user","type":"address","internalType":"address"}],"outputs":[{"name":"","type":"uint256","internalType":"uint256"}],"stateMutability":"view"},{"type":"function","name":"totalEarned","inputs":[{"name":"","type":"address","internalType":"address"}],"outputs":[{"name":"","type":"uint256","internalType":"uint256"}],"stateMutability":"view"},{"type":"function","name":"totalSupply","inputs":[],"outputs":[{"name":"","type":"uint256","internalType":"uint256"}],"stateMutability":"view"},{"type":"function","name":"transferOwnership","inputs":[{"name":"newOwner","type":"address","internalType":"address"}],"outputs":[],"stateMutability":"nonpayable"},{"type":"function","name":"userRewardPerTokenPaid","inputs":[{"name":"","type":"address","internalType":"address"}],"outputs":[{"name":"","type":"uint256","internalType":"uint256"}],"stateMutability":"view"},{"type":"function","name":"weightedTotalSupply","inputs":[],"outputs":[{"name":"","type":"uint256","internalType":"uint256"}],"stateMutability":"view"},{"type":"function","name":"withdraw","inputs":[{"name":"stakeIndex","type":"uint256","internalType":"uint256"}],"outputs":[],"stateMutability":"nonpayable"},{"type":"event","name":"OwnershipTransferred","inputs":[{"name":"previousOwner","type":"address","indexed":true,"internalType":"address"},{"name":"newOwner","type":"address","indexed":true,"internalType":"address"}],"anonymous":false},{"type":"event","name":"RewardAdded","inputs":[{"name":"reward","type":"uint256","indexed":false,"internalType":"uint256"}],"anonymous":false},{"type":"event","name":"RewardPaid","inputs":[{"name":"user","type":"address","indexed":true,"internalType":"address"},{"name":"reward","type":"uint256","indexed":false,"internalType":"uint256"}],"anonymous":false},{"type":"event","name":"Staked","inputs":[{"name":"user","type":"address","indexed":true,"internalType":"address"},{"name":"amount","type":"uint256","indexed":false,"internalType":"uint256"},{"name":"lockPeriod","type":"uint256","indexed":false,"internalType":"uint256"}],"anonymous":false},{"type":"event","name":"TokensRecovered","inputs":[{"name":"token","type":"address","indexed":false,"internalType":"address"},{"name":"amount","type":"uint256","indexed":false,"internalType":"uint256"}],"anonymous":false},{"type":"event","name":"Withdrawn","inputs":[{"name":"user","type":"address","indexed":true,"internalType":"address"},{"name":"amount","type":"uint256","indexed":false,"internalType":"uint256"}],"anonymous":false},{"type":"error","name":"AddressEmptyCode","inputs":[{"name":"target","type":"address","internalType":"address"}]},{"type":"error","name":"AddressInsufficientBalance","inputs":[{"name":"account","type":"address","internalType":"address"}]},{"type":"error","name":"FailedInnerCall","inputs":[]},{"type":"error","name":"OwnableInvalidOwner","inputs":[{"name":"owner","type":"address","internalType":"address"}]},{"type":"error","name":"OwnableUnauthorizedAccount","inputs":[{"name":"account","type":"address","internalType":"address"}]},{"type":"error","name":"ReentrancyGuardReentrantCall","inputs":[]},{"type":"error","name":"SafeERC20FailedOperation","inputs":[{"name":"token","type":"address","internalType":"address"}]}],"bytecode":{"object":"0x6080604052600080546001600160a01b03191673d83207c127c910e597b8ce77112ed0a56c8c9cd01781556b409f9cbc7c4a04c2200000006008556009819055600a553480156200004f57600080fd5b506040516200288338038062002883833981016040819052620000729162000319565b816001600160a01b038116620000a357604051631e4fbdf760e01b8152600060048201526024015b60405180910390fd5b620000ae8162000235565b506001600555600680546001600160a01b0319166001600160a01b038316179055620000da8262000287565b5050601280546001600160a01b0319163317905560017ff334b6e428d10075a86b988091978cd863ece9ba03a71184bdbfb81cad5c746c81905560027fd2d295ba115b3f8d1b6f781a2c75c15b381279b9d9208b66f75db1cf1753dde981905560037f16a0eaeacf1026055e7ed13c2129d2ab9348e98e971d2e42711ac3850c725c0981905560067f4327fba6f7c522f39c4a2d2b2677265917f8f6da3734897a0f697531aca0f68b81905560116020527f17bc176d2408558f6e4111feebc3cab4e16b63e967be91cde721f4c8a488b552939093557f08037d7b151cc412d25674a4e66b334d9ae9d2e5517a7feaae5cdb828bf1c628919091557f9bfbaa59f8e10e7868f8b402de9d605a390c45ddaebd8c9de3c6f31e733c87ff5560008190527ffb9ce45064c7e7d9bf9deb4750ba7c94ab3d6e7418c5d76bf69966d39a9d42f65562093a806007556014805460ff1916905562000351565b600380546001600160a01b038381166001600160a01b0319831681179093556040519116919082907f8be0079c531659141344cd1fd0a4f28419497f9722a3daafe3b4186f6b6457e090600090a35050565b62000291620002cb565b6001600160a01b038116620002bd57604051631e4fbdf760e01b8152600060048201526024016200009a565b620002c88162000235565b50565b6003546001600160a01b03163314620002fa5760405163118cdaa760e01b81523360048201526024016200009a565b565b80516001600160a01b03811681146200031457600080fd5b919050565b600080604083850312156200032d57600080fd5b6200033883620002fc565b91506200034860208401620002fc565b90509250929050565b61252280620003616000396000f3fe608060405234801561001057600080fd5b50600436106102735760003560e01c8063715018a611610151578063c8f33c91116100c3578063e6b40c4211610087578063e6b40c42146105bf578063ebe2b12b146105df578063edd0e0cb146105e8578063f2fde38b146105fb578063f6be71d11461060e578063fd5e6dd11461062157600080fd5b8063c8f33c9114610572578063cd3daf9d1461057b578063d5f3948814610583578063dd6b21be14610596578063df136d65146105b657600080fd5b80638b876347116101155780638b876347146105065780638da5cb5b1461052657806395aafd3314610537578063a694fc3a1461054a578063b1a7143d1461055d578063b9c5a4b41461056557600080fd5b8063715018a6146104c75780637b0472f0146104cf5780637b0a47ee146104e257806380faa57d146104eb5780638980f11f146104f357600080fd5b80633c6b16ab116101ea5780634de5120e116101ae5780634de5120e146103e8578063584b62a1146104085780635c319d0f14610443578063649aca4a1461044b5780636f1e85331461046b57806370a082311461049e57600080fd5b80633c6b16ab146103875780633d18b9121461039a5780633fc6df6e146103a257806347cbeb17146103b55780634c8f2a78146103c857600080fd5b806318160ddd1161023c57806318160ddd1461031057806319762143146103185780631ba818121461032d5780631be052891461035857806325303a73146103615780632e1a7d4d1461037457600080fd5b80628cc26214610278578063042389941461029e578063058c8c2e146102be5780630700037d146102c75780630e36e355146102e7575b600080fd5b61028b610286366004612113565b610634565b6040519081526020015b60405180910390f35b6102b16102ac366004612113565b6106a2565b604051610295919061212e565b61028b60085481565b61028b6102d5366004612113565b600e6020526000908152604090205481565b61028b6102f5366004612113565b6001600160a01b03166000908152600f602052604090205490565b60165461028b565b61032b610326366004612113565b610749565b005b600054610340906001600160a01b031681565b6040516001600160a01b039091168152602001610295565b61028b60075481565b61032b61036f36600461219c565b610773565b61032b61038236600461219c565b6107c0565b61032b61039536600461219c565b610ad4565b61032b610c8d565b600454610340906001600160a01b031681565b61028b6103c33660046121b5565b610e9b565b61028b6103d636600461219c565b60106020526000908152604090205481565b61028b6103f6366004612113565b60186020526000908152604090205481565b61041b6104163660046121b5565b610ff1565b604080519586526020860194909452928401919091526060830152608082015260a001610295565b61032b61103f565b61028b610459366004612113565b60196020526000908152604090205481565b61048e610479366004612113565b60156020526000908152604090205460ff1681565b6040519015158152602001610295565b61028b6104ac366004612113565b6001600160a01b031660009081526017602052604090205490565b61032b61115e565b61032b6104dd3660046121df565b611172565b61028b600a5481565b61028b6113f8565b61032b6105013660046121b5565b61140b565b61028b610514366004612113565b600d6020526000908152604090205481565b6003546001600160a01b0316610340565b61032b61054536600461224d565b6114b6565b61032b61055836600461219c565b611908565b61028b611963565b60145461048e9060ff1681565b61028b600b5481565b61028b611aa2565b601254610340906001600160a01b031681565b61028b6105a436600461219c565b60116020526000908152604090205481565b61028b600c5481565b61028b6105cd366004612113565b601a6020526000908152604090205481565b61028b60095481565b600654610340906001600160a01b031681565b61032b610609366004612113565b611af7565b61032b61061c36600461219c565b611b32565b61034061062f36600461219c565b611c3c565b600080805b6001600160a01b0384166000908152600f6020526040902054811015610677576106638482610e9b565b61066d9083612354565b9150600101610639565b506001600160a01b0383166000908152601a602052604090205461069b9082612367565b9392505050565b6001600160a01b0381166000908152600f60209081526040808320805482518185028101850190935280835260609492939192909184015b8282101561073e57838290600052602060002090600502016040518060a001604052908160008201548152602001600182015481526020016002820154815260200160038201548152602001600482015481525050815260200190600101906106da565b505050509050919050565b610751611c66565b600480546001600160a01b0319166001600160a01b0392909216919091179055565b6003546001600160a01b031633148061079657506012546001600160a01b031633145b6107bb5760405162461bcd60e51b81526004016107b29061237a565b60405180910390fd5b600855565b336107c9611aa2565b600c556107d46113f8565b600b556001600160a01b0381161561081b576107ef81610634565b6001600160a01b0382166000908152600e6020908152604080832093909355600c54600d909152919020555b336000908152600f6020526040902054821061086f5760405162461bcd60e51b8152602060048201526013602482015272092dcecc2d8d2c840e6e8c2d6ca40d2dcc8caf606b1b60448201526064016107b2565b336000908152600f60205260408120805484908110610890576108906123bd565b9060005260206000209060050201905060008160000154116108eb5760405162461bcd60e51b81526020600482015260146024820152734e6f207374616b6520746f20776974686472617760601b60448201526064016107b2565b80600301544210156109315760405162461bcd60e51b815260206004820152600f60248201526e14dd185ad9481a5cc81b1bd8dad959608a1b60448201526064016107b2565b805460165461093f91611c93565b60165580543360009081526017602052604090205461095d91611c93565b33600090815260176020526040902055805461097890611caf565b805460405190815233907f7084f5476618d8e60b11ef0d7d3f06914655adb8793e28ff7f018d4c76d505d59060200160405180910390a2336000908152600f6020526040902080546109cc90600190612367565b815481106109dc576109dc6123bd565b9060005260206000209060050201600f6000336001600160a01b03166001600160a01b031681526020019081526020016000208481548110610a2057610a206123bd565b6000918252602080832084546005909302019182556001808501549083015560028085015490830155600380850154908301556004938401549390910192909255338152600f90915260409020805480610a7c57610a7c6123d3565b6000828152602080822060056000199094019384020182815560018101839055600281018390556003810183905560040182905591909255338252600f905260408120549003610acf57610acf33611d06565b505050565b610adc611c66565b6000610ae6611aa2565b600c55610af16113f8565b600b556001600160a01b03811615610b3857610b0c81610634565b6001600160a01b0382166000908152600e6020908152604080832093909355600c54600d909152919020555b6000610b42611963565b90506009544210610b755780600003610b5f576000600a55610c27565b600754610b6d908490611e27565b600a55610c27565b600954600090610b859042611c93565b90506000610b9e600a5483611e3390919063ffffffff16565b905082600003610bb2576000600a55610c24565b600754600090610bcc90610bc68885611e69565b90611e27565b9050600a54811015610c205760405162461bcd60e51b815260206004820152601760248201527f4e657720726577617264207261746520746f6f206c6f7700000000000000000060448201526064016107b2565b600a555b50505b42600b819055600754610c3a9190611e69565b600955600654610c55906001600160a01b0316333086611e87565b6040518381527fde88a922e0d3b88b24e9623efeb464919c6bf9f66857a65e2bfcf2ce87a9433d9060200160405180910390a1505050565b33610c96611aa2565b600c55610ca16113f8565b600b556001600160a01b03811615610ce857610cbc81610634565b6001600160a01b0382166000908152600e6020908152604080832093909355600c54600d909152919020555b6000610cf333610634565b905060008111610d3b5760405162461bcd60e51b81526020600482015260136024820152724e6f207265776172647320746f20636c61696d60681b60448201526064016107b2565b33600090815260186020526040812054429190610d5b9062015180612354565b336000908152601860205260409020549091501580610d7957508082115b610dd45760405162461bcd60e51b815260206004820152602660248201527f5769746864726177616c2063616e206f6e6c7920626520646f6e65206f6e636560448201526520612064617960d01b60648201526084016107b2565b6008548390811115610de557506008545b336000908152600e6020526040902054610dff9082611c93565b336000908152600e6020908152604080832093909355601a90522054610e259082611e69565b336000818152601a60209081526040808320949094556018905291909120849055600654610e5f916001600160a01b039091169083611ef4565b60405181815233907fe2403640ba68fed3a2f88b7557551d1993f84b99bb10ff833f0cf8db0c5e04869060200160405180910390a25050505050565b6001600160a01b0382166000908152600f60205260408120548210610f025760405162461bcd60e51b815260206004820152601960248201527f5374616b6520696e646578206f7574206f6620626f756e64730000000000000060448201526064016107b2565b6001600160a01b0383166000908152600f60205260408120805484908110610f2c57610f2c6123bd565b90600052602060002090600502019050600080610f47611aa2565b90508260030154421115610f7c576001600160a01b0386166000908152600d6020526040902054610f79908290611f25565b90505b6001600160a01b0386166000908152600d6020526040812054610f9f9083612367565b9050610fd28460020154610fcc670de0b6b3a7640000610bc6858960000154611e3390919063ffffffff16565b90611e33565b9250828460040154610fe49190612354565b9450505050505b92915050565b600f602052816000526040600020818154811061100d57600080fd5b600091825260209091206005909102018054600182015460028301546003840154600490940154929550909350919085565b6003546001600160a01b031633148061106257506012546001600160a01b031633145b61107e5760405162461bcd60e51b81526004016107b29061237a565b6006546040516370a0823160e01b81523060048201526000916001600160a01b0316906370a0823190602401602060405180830381865afa1580156110c7573d6000803e3d6000fd5b505050506040513d601f19601f820116820180604052508101906110eb91906123e9565b90506111156111026003546001600160a01b031690565b6006546001600160a01b03169083611ef4565b600654604080516001600160a01b039092168252602082018390527f46d2e6e71fc567877b817ff3d940571f989d4ee4d40f2b70806d36e738feef6f910160405180910390a150565b611166611c66565b6111706000611f3b565b565b3361117b611aa2565b600c556111866113f8565b600b556001600160a01b038116156111cd576111a181610634565b6001600160a01b0382166000908152600e6020908152604080832093909355600c54600d909152919020555b6000831161120e5760405162461bcd60e51b815260206004820152600e60248201526d043616e6e6f74207374616b6520360941b60448201526064016107b2565b60008281526010602052604090205461125f5760405162461bcd60e51b8152602060048201526013602482015272125b9d985b1a59081b1bd8dac81c195c9a5bd9606a1b60448201526064016107b2565b60008281526010602090815260408083205483526011825280832054338452600f835292819020815160a08101835287815292830186905290820183905290606081016112ac8642612354565b81526000602091820181905283546001818101865594825290829020835160059092020190815590820151928101929092556040810151600283015560608101516003830155608001516004909101556016546113099085611e69565b601655336000908152601760205260409020546113269085611e69565b336000908152601760209081526040808320939093556018815282822082905560159052205460ff166113ae576013805460018181019092557f66de8ffda797e3de9c05e8fc57b3bf0ec28a930d40b0d285d93c06501cf6a0900180546001600160a01b031916339081179091556000908152601560205260409020805460ff191690911790555b6113b784611908565b604080518581526020810185905233917f1449c6dd7851abc30abf37f57715f492010519147cc2652fbc38202c18a6ee90910160405180910390a250505050565b600061140642600954611f25565b905090565b6003546001600160a01b031633148061142e57506012546001600160a01b031633145b61144a5760405162461bcd60e51b81526004016107b29061237a565b61147061145f6003546001600160a01b031690565b6001600160a01b0384169083611ef4565b604080516001600160a01b0384168152602081018390527f46d2e6e71fc567877b817ff3d940571f989d4ee4d40f2b70806d36e738feef6f910160405180910390a15050565b6114be611c66565b60145460ff16156115115760405162461bcd60e51b815260206004820152601760248201527f5374616b657320616c726561647920696d706f7274656400000000000000000060448201526064016107b2565b888714801561151f57508885145b801561152a57508883145b801561153557508881145b6115785760405162461bcd60e51b8152602060048201526014602482015273088c2e8c240d8cadccee8d040dad2e6dac2e8c6d60631b60448201526064016107b2565b6000805b8a8110156118d15760008c8c83818110611598576115986123bd565b90506020020160208101906115ad9190612113565b90503660008c8c858181106115c4576115c46123bd565b90506020028101906115d69190612402565b915091503660008c8c878181106115ef576115ef6123bd565b90506020028101906116019190612402565b915091503660008c8c8981811061161a5761161a6123bd565b905060200281019061162c9190612402565b9092509050848314801561163f57508481145b61169a5760405162461bcd60e51b815260206004820152602660248201527f4d69736d61746368656420646174612077697468696e20612073696e676c652060448201526539ba30b5b2b960d11b60648201526084016107b2565b8a8a898181106116ac576116ac6123bd565b6001600160a01b038a166000908152601a6020908152604090912091029290920135909155506116da611aa2565b6001600160a01b0388166000908152600d60205260408120919091555b858110156118bd576000878783818110611713576117136123bd565b9050602002013590506000868684818110611730576117306123bd565b905060200201359050600085858581811061174d5761174d6123bd565b90506020020135905060106000838152602001908152602001600020546000036117af5760405162461bcd60e51b8152602060048201526013602482015272125b9d985b1a59081b1bd8dac81c195c9a5bd9606a1b60448201526064016107b2565b600082815260106020908152604080832054835260118252808320546001600160a01b038f168452600f835292819020815160a08101835287815292830186905290820183905290606081016118058642612354565b81526020908101859052825460018181018555600094855293829020835160059092020190815590820151928101929092556040810151600283015560608101516003830155608001516004909101556016546118629085611e69565b6016556001600160a01b038c166000908152601760205260409020546118889085611e69565b6001600160a01b038d166000908152601760205260409020556118ab848f612354565b9d5050600190930192506116f7915050565b50506001909601955061157c945050505050565b506014805460ff191660011790556006546118f7906001600160a01b0316333084611e87565b505042600b55505050505050505050565b806001546119169190612354565b60015533600090815260026020526040902054611934908290612354565b336000818152600260205260408120929092559054611960916001600160a01b03909116903084611e87565b50565b600080805b601354811015611a9c57600060138281548110611987576119876123bd565b60009182526020822001546001600160a01b031691505b6001600160a01b0382166000908152600f6020526040902054811015611a92576011600060106000600f6000876001600160a01b03166001600160a01b0316815260200190815260200160002085815481106119fc576119fc6123bd565b906000526020600020906005020160010154815260200190815260200160002054815260200190815260200160002054600f6000846001600160a01b03166001600160a01b031681526020019081526020016000208281548110611a6257611a626123bd565b906000526020600020906005020160000154611a7e919061244c565b611a889085612354565b935060010161199e565b5050600101611968565b50919050565b6000611aac611963565b600003611aba5750600c5490565b611406611aee611ac8611963565b610bc6670de0b6b3a7640000610fcc600a54610fcc600b54611ae86113f8565b90611c93565b600c5490611e69565b611aff611c66565b6001600160a01b038116611b2957604051631e4fbdf760e01b8152600060048201526024016107b2565b61196081611f3b565b6003546001600160a01b0316331480611b5557506012546001600160a01b031633145b611b715760405162461bcd60e51b81526004016107b29061237a565b60095415611be75760405162461bcd60e51b815260206004820152603d60248201527f43616e6e6f74206368616e6765206475726174696f6e2061667465722072657760448201527f6172647320646973747269627574696f6e20686173207374617274656400000060648201526084016107b2565b60008111611c375760405162461bcd60e51b815260206004820152601f60248201527f4475726174696f6e206d7573742062652067726561746572207468616e20300060448201526064016107b2565b600755565b60138181548110611c4c57600080fd5b6000918252602090912001546001600160a01b0316905081565b6003546001600160a01b031633146111705760405163118cdaa760e01b81523360048201526024016107b2565b600082821115611ca557611ca5612463565b61069b8284612367565b80600154611cbd9190612367565b60015533600090815260026020526040902054611cdb908290612367565b336000818152600260205260408120929092559054611960916001600160a01b039091169083611ef4565b60005b601354811015611e2357816001600160a01b031660138281548110611d3057611d306123bd565b6000918252602090912001546001600160a01b031603611e1b5760138054611d5a90600190612367565b81548110611d6a57611d6a6123bd565b600091825260209091200154601380546001600160a01b039092169183908110611d9657611d966123bd565b9060005260206000200160006101000a8154816001600160a01b0302191690836001600160a01b031602179055506013805480611dd557611dd56123d3565b60008281526020808220830160001990810180546001600160a01b03191690559092019092556001600160a01b03841682526015905260409020805460ff191690555050565b600101611d09565b5050565b600061069b8284612479565b600082600003611e4557506000610feb565b611e4f828461244c565b905081611e5c8483612479565b14610feb57610feb612463565b6000611e758284612354565b905082811015610feb57610feb612463565b6040516001600160a01b038481166024830152838116604483015260648201839052611eee9186918216906323b872dd906084015b604051602081830303815290604052915060e01b6020820180516001600160e01b038381831617835250505050611f8d565b50505050565b6040516001600160a01b03838116602483015260448201839052610acf91859182169063a9059cbb90606401611ebc565b6000818310611f34578161069b565b5090919050565b600380546001600160a01b038381166001600160a01b0319831681179093556040519116919082907f8be0079c531659141344cd1fd0a4f28419497f9722a3daafe3b4186f6b6457e090600090a35050565b6000611fa26001600160a01b03841683611ff0565b90508051600014158015611fc7575080806020019051810190611fc5919061249b565b155b15610acf57604051635274afe760e01b81526001600160a01b03841660048201526024016107b2565b606061069b8383600084600080856001600160a01b0316848660405161201691906124bd565b60006040518083038185875af1925050503d8060008114612053576040519150601f19603f3d011682016040523d82523d6000602084013e612058565b606091505b5091509150612068868383612072565b9695505050505050565b60608261208757612082826120ce565b61069b565b815115801561209e57506001600160a01b0384163b155b156120c757604051639996b31560e01b81526001600160a01b03851660048201526024016107b2565b508061069b565b8051156120de5780518082602001fd5b604051630a12f52160e11b815260040160405180910390fd5b80356001600160a01b038116811461210e57600080fd5b919050565b60006020828403121561212557600080fd5b61069b826120f7565b602080825282518282018190526000919060409081850190868401855b8281101561218f5781518051855286810151878601528581015186860152606080820151908601526080908101519085015260a0909301929085019060010161214b565b5091979650505050505050565b6000602082840312156121ae57600080fd5b5035919050565b600080604083850312156121c857600080fd5b6121d1836120f7565b946020939093013593505050565b600080604083850312156121f257600080fd5b50508035926020909101359150565b60008083601f84011261221357600080fd5b50813567ffffffffffffffff81111561222b57600080fd5b6020830191508360208260051b850101111561224657600080fd5b9250929050565b60008060008060008060008060008060a08b8d03121561226c57600080fd5b8a3567ffffffffffffffff8082111561228457600080fd5b6122908e838f01612201565b909c509a5060208d01359150808211156122a957600080fd5b6122b58e838f01612201565b909a50985060408d01359150808211156122ce57600080fd5b6122da8e838f01612201565b909850965060608d01359150808211156122f357600080fd5b6122ff8e838f01612201565b909650945060808d013591508082111561231857600080fd5b506123258d828e01612201565b915080935050809150509295989b9194979a5092959850565b634e487b7160e01b600052601160045260246000fd5b80820180821115610feb57610feb61233e565b81810381811115610feb57610feb61233e565b60208082526023908201527f43616c6c6572206973206e6f7420746865206f776e6572206f72206465706c6f6040820152623cb2b960e91b606082015260800190565b634e487b7160e01b600052603260045260246000fd5b634e487b7160e01b600052603160045260246000fd5b6000602082840312156123fb57600080fd5b5051919050565b6000808335601e1984360301811261241957600080fd5b83018035915067ffffffffffffffff82111561243457600080fd5b6020019150600581901b360382131561224657600080fd5b8082028115828204841417610feb57610feb61233e565b634e487b7160e01b600052600160045260246000fd5b60008261249657634e487b7160e01b600052601260045260246000fd5b500490565b6000602082840312156124ad57600080fd5b8151801515811461069b57600080fd5b6000825160005b818110156124de57602081860181015185830152016124c4565b50600092019182525091905056fea2646970667358221220f27906e7245da338c914e644b107e359933ab6c79f99eb8c93bbe67a97898fd464736f6c63430008170033","linkReferences":{}},"methodIdentifiers":{"DURATION()":"1be05289","MAX_WITHDRAWAL_AMOUNT()":"058c8c2e","balanceOf(address)":"70a08231","deployer()":"d5f39488","earned(address)":"008cc262","earnedOnStake(address,uint256)":"47cbeb17","getAllStakes(address)":"04238994","getReward()":"3d18b912","importStakes(address[],uint256[][],uint256[][],uint256[][],uint256[])":"95aafd33","importedStakes()":"b9c5a4b4","isStaker(address)":"6f1e8533","lastTimeRewardApplicable()":"80faa57d","lastUpdateTime()":"c8f33c91","lastWithdrawalTime(address)":"4de5120e","lockMultipliers(uint256)":"dd6b21be","lockPeriods(uint256)":"4c8f2a78","notifyRewardAmount(uint256)":"3c6b16ab","owner()":"8da5cb5b","perezoso()":"edd0e0cb","perezosoToken()":"1ba81812","periodFinish()":"ebe2b12b","recoverERC20(address,uint256)":"8980f11f","recoverPerezosoToken()":"5c319d0f","renounceOwnership()":"715018a6","rewardPaid(address)":"e6b40c42","rewardPerToken()":"cd3daf9d","rewardPerTokenStored()":"df136d65","rewardRate()":"7b0a47ee","rewards(address)":"0700037d","rewardsDistribution()":"3fc6df6e","setDuration(uint256)":"f6be71d1","setMaxWithdrawalAmount(uint256)":"25303a73","setRewardsDistribution(address)":"19762143","stake(uint256)":"a694fc3a","stake(uint256,uint256)":"7b0472f0","stakers(uint256)":"fd5e6dd1","stakes(address,uint256)":"584b62a1","stakesCount(address)":"0e36e355","totalEarned(address)":"649aca4a","totalSupply()":"18160ddd","transferOwnership(address)":"f2fde38b","userRewardPerTokenPaid(address)":"8b876347","weightedTotalSupply()":"b1a7143d","withdraw(uint256)":"2e1a7d4d"},"id":31}